{
  "contractName": "OraclizeTest",
  "abi": [
    {
      "inputs": [],
      "payable": true,
      "stateMutability": "payable",
      "type": "constructor"
    },
    {
      "payable": false,
      "stateMutability": "nonpayable",
      "type": "fallback"
    },
    {
      "anonymous": false,
      "inputs": [
        {
          "indexed": false,
          "name": "description",
          "type": "string"
        }
      ],
      "name": "LogInfo",
      "type": "event"
    },
    {
      "anonymous": false,
      "inputs": [
        {
          "indexed": false,
          "name": "res_type",
          "type": "string"
        },
        {
          "indexed": false,
          "name": "message",
          "type": "string"
        },
        {
          "indexed": false,
          "name": "result",
          "type": "string"
        },
        {
          "indexed": false,
          "name": "hostname",
          "type": "string"
        }
      ],
      "name": "VerificationResult",
      "type": "event"
    },
    {
      "constant": false,
      "inputs": [
        {
          "name": "myid",
          "type": "bytes32"
        },
        {
          "name": "result",
          "type": "string"
        }
      ],
      "name": "__callback",
      "outputs": [],
      "payable": false,
      "stateMutability": "nonpayable",
      "type": "function"
    },
    {
      "constant": false,
      "inputs": [
        {
          "name": "id",
          "type": "bytes32"
        },
        {
          "name": "result",
          "type": "string"
        },
        {
          "name": "proof",
          "type": "bytes"
        }
      ],
      "name": "__callback",
      "outputs": [],
      "payable": false,
      "stateMutability": "nonpayable",
      "type": "function"
    },
    {
      "constant": false,
      "inputs": [
        {
          "name": "hostname",
          "type": "string"
        }
      ],
      "name": "isVerified",
      "outputs": [
        {
          "name": "",
          "type": "string"
        }
      ],
      "payable": true,
      "stateMutability": "payable",
      "type": "function"
    },
    {
      "constant": false,
      "inputs": [
        {
          "name": "hostname",
          "type": "string"
        }
      ],
      "name": "revoke",
      "outputs": [
        {
          "name": "",
          "type": "bool"
        }
      ],
      "payable": true,
      "stateMutability": "payable",
      "type": "function"
    },
    {
      "constant": false,
      "inputs": [
        {
          "name": "hostname",
          "type": "string"
        },
        {
          "name": "publicKey",
          "type": "string"
        }
      ],
      "name": "verifyhost",
      "outputs": [],
      "payable": true,
      "stateMutability": "payable",
      "type": "function"
    }
  ],
  "bytecode": "0x608060405233600560006101000a81548173ffffffffffffffffffffffffffffffffffffffff021916908373ffffffffffffffffffffffffffffffffffffffff160217905550736f485c8bf6fc43ea212e93bbf8ce046c7f1cb4756000806101000a81548173ffffffffffffffffffffffffffffffffffffffff021916908373ffffffffffffffffffffffffffffffffffffffff160217905550620000fb60017f01000000000000000000000000000000000000000000000000000000000000000260107f0100000000000000000000000000000000000000000000000000000000000000021762000101640100000000026401000000009004565b62000bc9565b60008060009054906101000a900473ffffffffffffffffffffffffffffffffffffffff1673ffffffffffffffffffffffffffffffffffffffff1614806200018257506000620001806000809054906101000a900473ffffffffffffffffffffffffffffffffffffffff16620004b5640100000000026401000000009004565b145b15620001a557620001a36000620004c0640100000000026401000000009004565b505b6000809054906101000a900473ffffffffffffffffffffffffffffffffffffffff1673ffffffffffffffffffffffffffffffffffffffff166338cc48316040518163ffffffff167c0100000000000000000000000000000000000000000000000000000000028152600401602060405180830381600087803b1580156200022b57600080fd5b505af115801562000240573d6000803e3d6000fd5b505050506040513d60208110156200025757600080fd5b810190808051906020019092919050505073ffffffffffffffffffffffffffffffffffffffff16600160009054906101000a900473ffffffffffffffffffffffffffffffffffffffff1673ffffffffffffffffffffffffffffffffffffffff16141515620003c3576000809054906101000a900473ffffffffffffffffffffffffffffffffffffffff1673ffffffffffffffffffffffffffffffffffffffff166338cc48316040518163ffffffff167c0100000000000000000000000000000000000000000000000000000000028152600401602060405180830381600087803b1580156200034557600080fd5b505af11580156200035a573d6000803e3d6000fd5b505050506040513d60208110156200037157600080fd5b8101908080519060200190929190505050600160006101000a81548173ffffffffffffffffffffffffffffffffffffffff021916908373ffffffffffffffffffffffffffffffffffffffff1602179055505b600160009054906101000a900473ffffffffffffffffffffffffffffffffffffffff1673ffffffffffffffffffffffffffffffffffffffff1663688dcfd7826040518263ffffffff167c010000000000000000000000000000000000000000000000000000000002815260040180827effffffffffffffffffffffffffffffffffffffffffffffffffffffffffffff19167effffffffffffffffffffffffffffffffffffffffffffffffffffffffffffff19168152602001915050600060405180830381600087803b1580156200049957600080fd5b505af1158015620004ae573d6000803e3d6000fd5b5050505050565b6000813b9050919050565b600080620004f1731d3b2638a7cc9f2cb3d298a3da7a90b67e5506ed620004b5640100000000026401000000009004565b1115620005a557731d3b2638a7cc9f2cb3d298a3da7a90b67e5506ed6000806101000a81548173ffffffffffffffffffffffffffffffffffffffff021916908373ffffffffffffffffffffffffffffffffffffffff1602179055506200059b6040805190810160405280600b81526020017f6574685f6d61696e6e657400000000000000000000000000000000000000000081525062000afe640100000000026401000000009004565b6001905062000af9565b6000620005d573c03a2615d5efaf5f49f60b7bb6583eaec212fdf1620004b5640100000000026401000000009004565b1115620006895773c03a2615d5efaf5f49f60b7bb6583eaec212fdf16000806101000a81548173ffffffffffffffffffffffffffffffffffffffff021916908373ffffffffffffffffffffffffffffffffffffffff1602179055506200067f6040805190810160405280600c81526020017f6574685f726f707374656e33000000000000000000000000000000000000000081525062000afe640100000000026401000000009004565b6001905062000af9565b6000620006b973b7a07bcf2ba2f2703b24c0691b5278999c59ac7e620004b5640100000000026401000000009004565b11156200076d5773b7a07bcf2ba2f2703b24c0691b5278999c59ac7e6000806101000a81548173ffffffffffffffffffffffffffffffffffffffff021916908373ffffffffffffffffffffffffffffffffffffffff160217905550620007636040805190810160405280600981526020017f6574685f6b6f76616e000000000000000000000000000000000000000000000081525062000afe640100000000026401000000009004565b6001905062000af9565b60006200079d73146500cfd35b22e4a392fe0adc06de1a1368ed48620004b5640100000000026401000000009004565b1115620008515773146500cfd35b22e4a392fe0adc06de1a1368ed486000806101000a81548173ffffffffffffffffffffffffffffffffffffffff021916908373ffffffffffffffffffffffffffffffffffffffff160217905550620008476040805190810160405280600b81526020017f6574685f72696e6b65627900000000000000000000000000000000000000000081525062000afe640100000000026401000000009004565b6001905062000af9565b60006200088173a2998efd205fb9d4b4963afb70778d6354ad3a41620004b5640100000000026401000000009004565b1115620009355773a2998efd205fb9d4b4963afb70778d6354ad3a416000806101000a81548173ffffffffffffffffffffffffffffffffffffffff021916908373ffffffffffffffffffffffffffffffffffffffff1602179055506200092b6040805190810160405280600a81526020017f6574685f676f65726c690000000000000000000000000000000000000000000081525062000afe640100000000026401000000009004565b6001905062000af9565b600062000965736f485c8bf6fc43ea212e93bbf8ce046c7f1cb475620004b5640100000000026401000000009004565b1115620009ca57736f485c8bf6fc43ea212e93bbf8ce046c7f1cb4756000806101000a81548173ffffffffffffffffffffffffffffffffffffffff021916908373ffffffffffffffffffffffffffffffffffffffff1602179055506001905062000af9565b6000620009fa7320e12a1f859b3feae5fb2a0a32c18f5a65555bbf620004b5640100000000026401000000009004565b111562000a5f577320e12a1f859b3feae5fb2a0a32c18f5a65555bbf6000806101000a81548173ffffffffffffffffffffffffffffffffffffffff021916908373ffffffffffffffffffffffffffffffffffffffff1602179055506001905062000af9565b600062000a8f7351efaf4c8b3c9afbd5ab9f4bbc82784ab6ef8faa620004b5640100000000026401000000009004565b111562000af4577351efaf4c8b3c9afbd5ab9f4bbc82784ab6ef8faa6000806101000a81548173ffffffffffffffffffffffffffffffffffffffff021916908373ffffffffffffffffffffffffffffffffffffffff1602179055506001905062000af9565b600090505b919050565b806002908051906020019062000b1692919062000b1a565b5050565b828054600181600116156101000203166002900490600052602060002090601f016020900481019282601f1062000b5d57805160ff191683800117855562000b8e565b8280016001018555821562000b8e579182015b8281111562000b8d57825182559160200191906001019062000b70565b5b50905062000b9d919062000ba1565b5090565b62000bc691905b8082111562000bc257600081600090555060010162000ba8565b5090565b90565b6133648062000bd96000396000f30060806040526004361061006d576000357c0100000000000000000000000000000000000000000000000000000000900463ffffffff168063234c76d51461007f57806327dc297e1461015457806338bbfa50146101cb5780634f72772d1461028857806365b2a8631461032a575b34801561007957600080fd5b50600080fd5b6100d9600480360381019080803590602001908201803590602001908080601f016020809104026020016040519081016040528093929190818152602001838380828437820191505050505050919291929050505061039e565b6040518080602001828103825283818151815260200191508051906020019080838360005b838110156101195780820151818401526020810190506100fe565b50505050905090810190601f1680156101465780820380516001836020036101000a031916815260200191505b509250505060405180910390f35b34801561016057600080fd5b506101c96004803603810190808035600019169060200190929190803590602001908201803590602001908080601f0160208091040260200160405190810160405280939291908181526020018383808284378201915050505050509192919290505050610965565b005b3480156101d757600080fd5b506102866004803603810190808035600019169060200190929190803590602001908201803590602001908080601f0160208091040260200160405190810160405280939291908181526020018383808284378201915050505050509192919290803590602001908201803590602001908080601f01602080910402602001604051908101604052809392919081815260200183838082843782019150505050505091929192905050506109a8565b005b610328600480360381019080803590602001908201803590602001908080601f0160208091040260200160405190810160405280939291908181526020018383808284378201915050505050509192919290803590602001908201803590602001908080601f0160208091040260200160405190810160405280939291908181526020018383808284378201915050505050509192919290505050610f53565b005b610384600480360381019080803590602001908201803590602001908080601f01602080910402602001604051908101604052809392919081815260200183838082843782019150505050505091929192905050506115ba565b604051808215151515815260200191505060405180910390f35b60606007826040518082805190602001908083835b6020831015156103d857805182526020820191506020810190506020830392506103b3565b6001836020036101000a038019825116818451168082178552505050505050905001915050908152602001604051809103902060020160149054906101000a900460ff1615610734577f697acbf97c778656f28de0359586867ae8a17f495f86ae2b2977d5ebf76b54b56007836040518082805190602001908083835b60208310151561047a5780518252602082019150602081019050602083039250610455565b6001836020036101000a03801982511681845116808217855250505050505090500191505090815260200160405180910390206001018360405180806020018060200180602001806020018581038552600a8152602001807f6973766572696669656400000000000000000000000000000000000000000000815250602001858103845260078152602001807f73756363657373000000000000000000000000000000000000000000000000008152506020018581038352878181546001816001161561010002031660029004815260200191508054600181600116156101000203166002900480156105ae5780601f10610583576101008083540402835291602001916105ae565b820191906000526020600020905b81548152906001019060200180831161059157829003601f168201915b5050858103825286818151815260200191508051906020019080838360005b838110156105e85780820151818401526020810190506105cd565b50505050905090810190601f1680156106155780820380516001836020036101000a031916815260200191505b50965050505050505060405180910390a16007826040518082805190602001908083835b60208310151561065e5780518252602082019150602081019050602083039250610639565b6001836020036101000a03801982511681845116808217855250505050505090500191505090815260200160405180910390206001018054600181600116156101000203166002900480601f0160208091040260200160405190810160405280929190818152602001828054600181600116156101000203166002900480156107285780601f106106fd57610100808354040283529160200191610728565b820191906000526020600020905b81548152906001019060200180831161070b57829003601f168201915b50505050509050610960565b7f697acbf97c778656f28de0359586867ae8a17f495f86ae2b2977d5ebf76b54b58260405180806020018060200180602001806020018581038552600d8152602001807f69736e6f74766572696669656400000000000000000000000000000000000000815250602001858103845260078152602001807f6661696c75726500000000000000000000000000000000000000000000000000815250602001858103835260008152602001602001858103825286818151815260200191508051906020019080838360005b838110156108195780820151818401526020810190506107fe565b50505050905090810190601f1680156108465780820380516001836020036101000a031916815260200191505b509550505050505060405180910390a16007826040518082805190602001908083835b60208310151561088e5780518252602082019150602081019050602083039250610869565b6001836020036101000a03801982511681845116808217855250505050505090500191505090815260200160405180910390206001018054600181600116156101000203166002900480601f0160208091040260200160405190810160405280929190818152602001828054600181600116156101000203166002900480156109585780601f1061092d57610100808354040283529160200191610958565b820191906000526020600020905b81548152906001019060200180831161093b57829003601f168201915b505050505090505b919050565b6109a4828260006040519080825280601f01601f19166020018201604052801561099e5781602001602082028038833980820191505090505b506109a8565b5050565b6000806109b3611881565b73ffffffffffffffffffffffffffffffffffffffff163373ffffffffffffffffffffffffffffffffffffffff161415156109ec57600080fd5b60066000866000191660001916815260200190815260200160002091506007826040518082805460018160011615610100020316600290048015610a675780601f10610a45576101008083540402835291820191610a67565b820191906000526020600020905b815481529060010190602001808311610a53575b5050915050908152602001604051809103902090506000610b2485836001018054600181600116156101000203166002900480601f016020809104026020016040519081016040528092919081815260200182805460018160011615610100020316600290048015610b1a5780601f10610aef57610100808354040283529160200191610b1a565b820191906000526020600020905b815481529060010190602001808311610afd57829003601f168201915b5050505050611bdf565b1415610ce45760018160020160146101000a81548160ff0219169083151502179055507f697acbf97c778656f28de0359586867ae8a17f495f86ae2b2977d5ebf76b54b584836040518080602001806020018060200180602001858103855260088152602001807f7665726966696564000000000000000000000000000000000000000000000000815250602001858103845260078152602001807f7375636365737300000000000000000000000000000000000000000000000000815250602001858103835287818151815260200191508051906020019080838360005b83811015610c1e578082015181840152602081019050610c03565b50505050905090810190601f168015610c4b5780820380516001836020036101000a031916815260200191505b50858103825286818154600181600116156101000203166002900481526020019150805460018160011615610100020316600290048015610ccd5780601f10610ca257610100808354040283529160200191610ccd565b820191906000526020600020905b815481529060010190602001808311610cb057829003601f168201915b5050965050505050505060405180910390a1610f4c565b7f697acbf97c778656f28de0359586867ae8a17f495f86ae2b2977d5ebf76b54b5848360405180806020018060200180602001806020018581038552600b8152602001807f6e6f747665726966696564000000000000000000000000000000000000000000815250602001858103845260078152602001807f6661696c75726500000000000000000000000000000000000000000000000000815250602001858103835287818151815260200191508051906020019080838360005b83811015610dbb578082015181840152602081019050610da0565b50505050905090810190601f168015610de85780820380516001836020036101000a031916815260200191505b50858103825286818154600181600116156101000203166002900481526020019150805460018160011615610100020316600290048015610e6a5780601f10610e3f57610100808354040283529160200191610e6a565b820191906000526020600020905b815481529060010190602001808311610e4d57829003601f168201915b5050965050505050505060405180910390a16007826040518082805460018160011615610100020316600290048015610eda5780601f10610eb8576101008083540402835291820191610eda565b820191906000526020600020905b815481529060010190602001808311610ec6575b5050915050908152602001604051809103902060008082016000610efe91906131cb565b600182016000610f0e91906131cb565b6002820160006101000a81549073ffffffffffffffffffffffffffffffffffffffff02191690556002820160146101000a81549060ff021916905550505b5050505050565b3073ffffffffffffffffffffffffffffffffffffffff1631610fa96040805190810160405280600381526020017f55524c0000000000000000000000000000000000000000000000000000000000815250611e96565b1115611068577ffee95ecae0c8f7f0743ec0ad254c78ab75e5ecca9f1ddcd9f11f9a98124b96bc60405180806020018281038252604b8152602001807f4f7261636c697a6520717565727920776173204e4f542073656e742c20706c6581526020017f6173652061646420736f6d652045544820746f20636f76657220666f7220746881526020017f652071756572792066656500000000000000000000000000000000000000000081525060600191505060405180910390a16115b6565b7ffee95ecae0c8f7f0743ec0ad254c78ab75e5ecca9f1ddcd9f11f9a98124b96bc6040518080602001828103825260358152602001807f4f7261636c697a65207175657279207761732073656e742c207374616e64696e81526020017f6720627920666f722074686520616e737765722e2e000000000000000000000081525060400191505060405180910390a1600115156007836040518082805190602001908083835b602083101515611132578051825260208201915060208101905060208303925061110d565b6001836020036101000a038019825116818451168082178552505050505050905001915050908152602001604051809103902060020160149054906101000a900460ff1615151415611388577f697acbf97c778656f28de0359586867ae8a17f495f86ae2b2977d5ebf76b54b56007836040518082805190602001908083835b6020831015156111d757805182526020820191506020810190506020830392506111b2565b6001836020036101000a03801982511681845116808217855250505050505090500191505090815260200160405180910390206001018360405180806020018060200180602001806020018581038552600f8152602001807f616c726561647976657269666965640000000000000000000000000000000000815250602001858103845260078152602001807f737563636573730000000000000000000000000000000000000000000000000081525060200185810383528781815460018160011615610100020316600290048152602001915080546001816001161561010002031660029004801561130b5780601f106112e05761010080835404028352916020019161130b565b820191906000526020600020905b8154815290600101906020018083116112ee57829003601f168201915b5050858103825286818151815260200191508051906020019080838360005b8381101561134557808201518184015260208101905061132a565b50505050905090810190601f1680156113725780820380516001836020036101000a031916815260200191505b50965050505050505060405180910390a16115b5565b81600660006114406040805190810160405280600381526020017f55524c000000000000000000000000000000000000000000000000000000000081525061143b6040805190810160405280600d81526020017f6a736f6e2868747470733a2f2f00000000000000000000000000000000000000815250886040805190810160405280600e81526020017f2f6964656e74697479292e6b6579000000000000000000000000000000000000815250612266565b61229e565b600019166000191681526020019081526020016000209080519060200190611469929190613213565b506080604051908101604052808381526020018281526020013373ffffffffffffffffffffffffffffffffffffffff168152602001600015158152506007836040518082805190602001908083835b6020831015156114dd57805182526020820191506020810190506020830392506114b8565b6001836020036101000a0380198251168184511680821785525050505050509050019150509081526020016040518091039020600082015181600001908051906020019061152c929190613293565b506020820151816001019080519060200190611549929190613293565b5060408201518160020160006101000a81548173ffffffffffffffffffffffffffffffffffffffff021916908373ffffffffffffffffffffffffffffffffffffffff16021790555060608201518160020160146101000a81548160ff0219169083151502179055509050505b5b5050565b6000806007836040518082805190602001908083835b6020831015156115f557805182526020820191506020810190506020830392506115d0565b6001836020036101000a038019825116818451168082178552505050505050905001915050908152602001604051809103902090503373ffffffffffffffffffffffffffffffffffffffff168160020160009054906101000a900473ffffffffffffffffffffffffffffffffffffffff1673ffffffffffffffffffffffffffffffffffffffff161415611876576007836040518082805190602001908083835b6020831015156116ba5780518252602082019150602081019050602083039250611695565b6001836020036101000a0380198251168184511680821785525050505050509050019150509081526020016040518091039020600080820160006116fe91906131cb565b60018201600061170e91906131cb565b6002820160006101000a81549073ffffffffffffffffffffffffffffffffffffffff02191690556002820160146101000a81549060ff021916905550507f697acbf97c778656f28de0359586867ae8a17f495f86ae2b2977d5ebf76b54b5836040518080602001806020018060200180602001858103855260068152602001807f7265766f6b650000000000000000000000000000000000000000000000000000815250602001858103845260078152602001807f7375636365737300000000000000000000000000000000000000000000000000815250602001858103835260008152602001602001858103825286818151815260200191508051906020019080838360005b83811015611830578082015181840152602081019050611815565b50505050905090810190601f16801561185d5780820380516001836020036101000a031916815260200191505b509550505050505060405180910390a16001915061187b565b600091505b50919050565b6000806000809054906101000a900473ffffffffffffffffffffffffffffffffffffffff1673ffffffffffffffffffffffffffffffffffffffff1614806118f1575060006118ef6000809054906101000a900473ffffffffffffffffffffffffffffffffffffffff16612840565b145b1561190257611900600061284b565b505b6000809054906101000a900473ffffffffffffffffffffffffffffffffffffffff1673ffffffffffffffffffffffffffffffffffffffff166338cc48316040518163ffffffff167c0100000000000000000000000000000000000000000000000000000000028152600401602060405180830381600087803b15801561198757600080fd5b505af115801561199b573d6000803e3d6000fd5b505050506040513d60208110156119b157600080fd5b810190808051906020019092919050505073ffffffffffffffffffffffffffffffffffffffff16600160009054906101000a900473ffffffffffffffffffffffffffffffffffffffff1673ffffffffffffffffffffffffffffffffffffffff16141515611b19576000809054906101000a900473ffffffffffffffffffffffffffffffffffffffff1673ffffffffffffffffffffffffffffffffffffffff166338cc48316040518163ffffffff167c0100000000000000000000000000000000000000000000000000000000028152600401602060405180830381600087803b158015611a9d57600080fd5b505af1158015611ab1573d6000803e3d6000fd5b505050506040513d6020811015611ac757600080fd5b8101908080519060200190929190505050600160006101000a81548173ffffffffffffffffffffffffffffffffffffffff021916908373ffffffffffffffffffffffffffffffffffffffff1602179055505b600160009054906101000a900473ffffffffffffffffffffffffffffffffffffffff1673ffffffffffffffffffffffffffffffffffffffff1663c281d19e6040518163ffffffff167c0100000000000000000000000000000000000000000000000000000000028152600401602060405180830381600087803b158015611b9f57600080fd5b505af1158015611bb3573d6000803e3d6000fd5b505050506040513d6020811015611bc957600080fd5b8101908080519060200190929190505050905090565b6000606080600080869350859250835191508183511015611bff57825191505b600090505b81811015611e42578281815181101515611c1a57fe5b9060200101517f010000000000000000000000000000000000000000000000000000000000000090047f0100000000000000000000000000000000000000000000000000000000000000027effffffffffffffffffffffffffffffffffffffffffffffffffffffffffffff19168482815181101515611c9557fe5b9060200101517f010000000000000000000000000000000000000000000000000000000000000090047f0100000000000000000000000000000000000000000000000000000000000000027effffffffffffffffffffffffffffffffffffffffffffffffffffffffffffff19161015611d30577fffffffffffffffffffffffffffffffffffffffffffffffffffffffffffffffff9450611e8c565b8281815181101515611d3e57fe5b9060200101517f010000000000000000000000000000000000000000000000000000000000000090047f0100000000000000000000000000000000000000000000000000000000000000027effffffffffffffffffffffffffffffffffffffffffffffffffffffffffffff19168482815181101515611db957fe5b9060200101517f010000000000000000000000000000000000000000000000000000000000000090047f0100000000000000000000000000000000000000000000000000000000000000027effffffffffffffffffffffffffffffffffffffffffffffffffffffffffffff19161115611e355760019450611e8c565b8080600101915050611c04565b825184511015611e74577fffffffffffffffffffffffffffffffffffffffffffffffffffffffffffffffff9450611e8c565b825184511115611e875760019450611e8c565b600094505b5050505092915050565b6000806000809054906101000a900473ffffffffffffffffffffffffffffffffffffffff1673ffffffffffffffffffffffffffffffffffffffff161480611f0657506000611f046000809054906101000a900473ffffffffffffffffffffffffffffffffffffffff16612840565b145b15611f1757611f15600061284b565b505b6000809054906101000a900473ffffffffffffffffffffffffffffffffffffffff1673ffffffffffffffffffffffffffffffffffffffff166338cc48316040518163ffffffff167c0100000000000000000000000000000000000000000000000000000000028152600401602060405180830381600087803b158015611f9c57600080fd5b505af1158015611fb0573d6000803e3d6000fd5b505050506040513d6020811015611fc657600080fd5b810190808051906020019092919050505073ffffffffffffffffffffffffffffffffffffffff16600160009054906101000a900473ffffffffffffffffffffffffffffffffffffffff1673ffffffffffffffffffffffffffffffffffffffff1614151561212e576000809054906101000a900473ffffffffffffffffffffffffffffffffffffffff1673ffffffffffffffffffffffffffffffffffffffff166338cc48316040518163ffffffff167c0100000000000000000000000000000000000000000000000000000000028152600401602060405180830381600087803b1580156120b257600080fd5b505af11580156120c6573d6000803e3d6000fd5b505050506040513d60208110156120dc57600080fd5b8101908080519060200190929190505050600160006101000a81548173ffffffffffffffffffffffffffffffffffffffff021916908373ffffffffffffffffffffffffffffffffffffffff1602179055505b600160009054906101000a900473ffffffffffffffffffffffffffffffffffffffff1673ffffffffffffffffffffffffffffffffffffffff1663524f3889836040518263ffffffff167c01000000000000000000000000000000000000000000000000000000000281526004018080602001828103825283818151815260200191508051906020019080838360005b838110156121d85780820151818401526020810190506121bd565b50505050905090810190601f1680156122055780820380516001836020036101000a031916815260200191505b5092505050602060405180830381600087803b15801561222457600080fd5b505af1158015612238573d6000803e3d6000fd5b505050506040513d602081101561224e57600080fd5b81019080805190602001909291905050509050919050565b606061229584848460206040519081016040528060008152506020604051908101604052806000815250612d9c565b90509392505050565b60008060008060009054906101000a900473ffffffffffffffffffffffffffffffffffffffff1673ffffffffffffffffffffffffffffffffffffffff1614806123105750600061230e6000809054906101000a900473ffffffffffffffffffffffffffffffffffffffff16612840565b145b156123215761231f600061284b565b505b6000809054906101000a900473ffffffffffffffffffffffffffffffffffffffff1673ffffffffffffffffffffffffffffffffffffffff166338cc48316040518163ffffffff167c0100000000000000000000000000000000000000000000000000000000028152600401602060405180830381600087803b1580156123a657600080fd5b505af11580156123ba573d6000803e3d6000fd5b505050506040513d60208110156123d057600080fd5b810190808051906020019092919050505073ffffffffffffffffffffffffffffffffffffffff16600160009054906101000a900473ffffffffffffffffffffffffffffffffffffffff1673ffffffffffffffffffffffffffffffffffffffff16141515612538576000809054906101000a900473ffffffffffffffffffffffffffffffffffffffff1673ffffffffffffffffffffffffffffffffffffffff166338cc48316040518163ffffffff167c0100000000000000000000000000000000000000000000000000000000028152600401602060405180830381600087803b1580156124bc57600080fd5b505af11580156124d0573d6000803e3d6000fd5b505050506040513d60208110156124e657600080fd5b8101908080519060200190929190505050600160006101000a81548173ffffffffffffffffffffffffffffffffffffffff021916908373ffffffffffffffffffffffffffffffffffffffff1602179055505b600160009054906101000a900473ffffffffffffffffffffffffffffffffffffffff1673ffffffffffffffffffffffffffffffffffffffff1663524f3889856040518263ffffffff167c01000000000000000000000000000000000000000000000000000000000281526004018080602001828103825283818151815260200191508051906020019080838360005b838110156125e25780820151818401526020810190506125c7565b50505050905090810190601f16801561260f5780820380516001836020036101000a031916815260200191505b5092505050602060405180830381600087803b15801561262e57600080fd5b505af1158015612642573d6000803e3d6000fd5b505050506040513d602081101561265857600080fd5b8101908080519060200190929190505050905062030d403a02670de0b6b3a76400000181111561268e5760006001029150612839565b600160009054906101000a900473ffffffffffffffffffffffffffffffffffffffff1673ffffffffffffffffffffffffffffffffffffffff1663adf59f9982600087876040518563ffffffff167c0100000000000000000000000000000000000000000000000000000000028152600401808481526020018060200180602001838103835285818151815260200191508051906020019080838360005b8381101561274657808201518184015260208101905061272b565b50505050905090810190601f1680156127735780820380516001836020036101000a031916815260200191505b50838103825284818151815260200191508051906020019080838360005b838110156127ac578082015181840152602081019050612791565b50505050905090810190601f1680156127d95780820380516001836020036101000a031916815260200191505b50955050505050506020604051808303818588803b1580156127fa57600080fd5b505af115801561280e573d6000803e3d6000fd5b50505050506040513d602081101561282557600080fd5b810190808051906020019092919050505091505b5092915050565b6000813b9050919050565b60008061286b731d3b2638a7cc9f2cb3d298a3da7a90b67e5506ed612840565b111561290c57731d3b2638a7cc9f2cb3d298a3da7a90b67e5506ed6000806101000a81548173ffffffffffffffffffffffffffffffffffffffff021916908373ffffffffffffffffffffffffffffffffffffffff1602179055506129036040805190810160405280600b81526020017f6574685f6d61696e6e65740000000000000000000000000000000000000000008152506131b1565b60019050612d97565b600061292b73c03a2615d5efaf5f49f60b7bb6583eaec212fdf1612840565b11156129cc5773c03a2615d5efaf5f49f60b7bb6583eaec212fdf16000806101000a81548173ffffffffffffffffffffffffffffffffffffffff021916908373ffffffffffffffffffffffffffffffffffffffff1602179055506129c36040805190810160405280600c81526020017f6574685f726f707374656e3300000000000000000000000000000000000000008152506131b1565b60019050612d97565b60006129eb73b7a07bcf2ba2f2703b24c0691b5278999c59ac7e612840565b1115612a8c5773b7a07bcf2ba2f2703b24c0691b5278999c59ac7e6000806101000a81548173ffffffffffffffffffffffffffffffffffffffff021916908373ffffffffffffffffffffffffffffffffffffffff160217905550612a836040805190810160405280600981526020017f6574685f6b6f76616e00000000000000000000000000000000000000000000008152506131b1565b60019050612d97565b6000612aab73146500cfd35b22e4a392fe0adc06de1a1368ed48612840565b1115612b4c5773146500cfd35b22e4a392fe0adc06de1a1368ed486000806101000a81548173ffffffffffffffffffffffffffffffffffffffff021916908373ffffffffffffffffffffffffffffffffffffffff160217905550612b436040805190810160405280600b81526020017f6574685f72696e6b6562790000000000000000000000000000000000000000008152506131b1565b60019050612d97565b6000612b6b73a2998efd205fb9d4b4963afb70778d6354ad3a41612840565b1115612c0c5773a2998efd205fb9d4b4963afb70778d6354ad3a416000806101000a81548173ffffffffffffffffffffffffffffffffffffffff021916908373ffffffffffffffffffffffffffffffffffffffff160217905550612c036040805190810160405280600a81526020017f6574685f676f65726c69000000000000000000000000000000000000000000008152506131b1565b60019050612d97565b6000612c2b736f485c8bf6fc43ea212e93bbf8ce046c7f1cb475612840565b1115612c8e57736f485c8bf6fc43ea212e93bbf8ce046c7f1cb4756000806101000a81548173ffffffffffffffffffffffffffffffffffffffff021916908373ffffffffffffffffffffffffffffffffffffffff16021790555060019050612d97565b6000612cad7320e12a1f859b3feae5fb2a0a32c18f5a65555bbf612840565b1115612d10577320e12a1f859b3feae5fb2a0a32c18f5a65555bbf6000806101000a81548173ffffffffffffffffffffffffffffffffffffffff021916908373ffffffffffffffffffffffffffffffffffffffff16021790555060019050612d97565b6000612d2f7351efaf4c8b3c9afbd5ab9f4bbc82784ab6ef8faa612840565b1115612d92577351efaf4c8b3c9afbd5ab9f4bbc82784ab6ef8faa6000806101000a81548173ffffffffffffffffffffffffffffffffffffffff021916908373ffffffffffffffffffffffffffffffffffffffff16021790555060019050612d97565b600090505b919050565b6060806060806060806060806000808e98508d97508c96508b95508a94508451865188518a518c51010101016040519080825280601f01601f191660200182016040528015612dfa5781602001602082028038833980820191505090505b50935083925060009150600090505b8851811015612ebc578881815181101515612e2057fe5b9060200101517f010000000000000000000000000000000000000000000000000000000000000090047f0100000000000000000000000000000000000000000000000000000000000000028383806001019450815181101515612e7f57fe5b9060200101907effffffffffffffffffffffffffffffffffffffffffffffffffffffffffffff1916908160001a9053508080600101915050612e09565b600090505b8751811015612f74578781815181101515612ed857fe5b9060200101517f010000000000000000000000000000000000000000000000000000000000000090047f0100000000000000000000000000000000000000000000000000000000000000028383806001019450815181101515612f3757fe5b9060200101907effffffffffffffffffffffffffffffffffffffffffffffffffffffffffffff1916908160001a9053508080600101915050612ec1565b600090505b865181101561302c578681815181101515612f9057fe5b9060200101517f010000000000000000000000000000000000000000000000000000000000000090047f0100000000000000000000000000000000000000000000000000000000000000028383806001019450815181101515612fef57fe5b9060200101907effffffffffffffffffffffffffffffffffffffffffffffffffffffffffffff1916908160001a9053508080600101915050612f79565b600090505b85518110156130e457858181518110151561304857fe5b9060200101517f010000000000000000000000000000000000000000000000000000000000000090047f01000000000000000000000000000000000000000000000000000000000000000283838060010194508151811015156130a757fe5b9060200101907effffffffffffffffffffffffffffffffffffffffffffffffffffffffffffff1916908160001a9053508080600101915050613031565b600090505b845181101561319c57848181518110151561310057fe5b9060200101517f010000000000000000000000000000000000000000000000000000000000000090047f010000000000000000000000000000000000000000000000000000000000000002838380600101945081518110151561315f57fe5b9060200101907effffffffffffffffffffffffffffffffffffffffffffffffffffffffffffff1916908160001a90535080806001019150506130e9565b82995050505050505050505095945050505050565b80600290805190602001906131c7929190613213565b5050565b50805460018160011615610100020316600290046000825580601f106131f15750613210565b601f01602090049060005260206000209081019061320f9190613313565b5b50565b828054600181600116156101000203166002900490600052602060002090601f016020900481019282601f1061325457805160ff1916838001178555613282565b82800160010185558215613282579182015b82811115613281578251825591602001919060010190613266565b5b50905061328f9190613313565b5090565b828054600181600116156101000203166002900490600052602060002090601f016020900481019282601f106132d457805160ff1916838001178555613302565b82800160010185558215613302579182015b828111156133015782518255916020019190600101906132e6565b5b50905061330f9190613313565b5090565b61333591905b80821115613331576000816000905550600101613319565b5090565b905600a165627a7a7230582065e06167f30ac1ca5a55616e1952752d58b614a51409d1c62b8f92695f5b302b0029",
  "source": "\npragma solidity ^0.4.21;\nimport \"installed_contracts/oraclize-api/contracts/usingOraclize.sol\";\n\ncontract OraclizeTest is usingOraclize {\n\n    address owner;\n\n    struct X509{\n        string hostname;\n        string publicKey;\n        address revokeKey;\n        bool verified;\n    }\n    mapping (bytes32 => string) queries;\n    mapping(string => X509) certificates;\n\n    event LogInfo(string description);\n    event VerificationResult(string res_type, string message, string result, string hostname);\n\n    // Constructor\n    function OraclizeTest()\n    payable\n    public {\n        owner = msg.sender;\n\n        OAR = OraclizeAddrResolverI(0x6f485c8bf6fc43ea212e93bbf8ce046c7f1cb475);\n\n        oraclize_setProof(proofType_TLSNotary | proofStorage_IPFS);\n    }\n\n    // Fallback function\n    function()\n    public{\n        revert();\n    }\n\n    function __callback(bytes32 id, string result, bytes proof)\n    public {\n\n        require(msg.sender == oraclize_cbAddress());\n\n        string hostname = queries[id];\n        X509 Certificate = certificates[hostname];\n\n        if(strCompare(result, Certificate.publicKey) == 0){\n            \n        Certificate.verified = true;\n        emit VerificationResult(\"verified\", \"success\", result, hostname);\n        \n        }\n        else{\n\n            emit VerificationResult(\"notverified\", \"failure\", result, hostname);\n            delete certificates[hostname];\n        }\n    }\n\n\n    function isVerified(string hostname) payable public returns (string)\n     {\n         if(certificates[hostname].verified){\n            emit VerificationResult(\"isverified\", \"success\", certificates[hostname].publicKey, hostname);  \n             return certificates[hostname].publicKey;   \n         }\n        emit VerificationResult(\"isnotverified\", \"failure\", \"\", hostname);  \n        return certificates[hostname].publicKey;\n    }\n\n\n    function revoke(string hostname) payable public returns(bool){\n         X509 Certificate = certificates[hostname];\n            if(Certificate.revokeKey == msg.sender){\n             delete certificates[hostname];\n              emit VerificationResult(\"revoke\", \"success\", \"\", hostname);  \n             return true;\n         }\n         else{\n             return false;\n         }\n    }\n\n    function verifyhost(string hostname, string publicKey)\n    payable\n    public\n    {\n        if (oraclize_getPrice(\"URL\") > address(this).balance) {\n            emit LogInfo(\"Oraclize query was NOT sent, please add some ETH to cover for the query fee\");\n        } else {\n            emit LogInfo(\"Oraclize query was sent, standing by for the answer..\");\n\n            //oraclize_query(\"URL\",  strConcat(\"json(\", hostname, \").key\"));\n            if(certificates[hostname].verified == true){\n                 emit VerificationResult(\"alreadyverified\", \"success\", certificates[hostname].publicKey, hostname);  \n            }\n            else{\n                queries[oraclize_query(\"URL\",  strConcat(\"json(https://\", hostname, \"/identity).key\"))] = hostname;\n                certificates[hostname] = X509(hostname, publicKey, msg.sender, false);\n            }\n\n        }\n    }\n    \n//     function toString(address x) returns (string) {\n//     bytes memory b = new bytes(20);\n//     for (uint i = 0; i < 20; i++)\n//         b[i] = byte(uint8(uint(x) / (2**(8*(19 - i)))));\n//     return string(b);\n// }\n}",
  "sourcePath": "/home/sanjay/ssh_test/contracts/OraclizeTest.sol",
  "compiler": {
    "name": "solc",
    "version": "0.4.26+commit.4563c3fc.Emscripten.clang"
  },
  "schemaVersion": "2.0.3",
  "updatedAt": "2020-02-09T08:14:18.853Z"
}